:020000040800F2
:100000000004002089050008A5050008A9050008CE
:10001000AD050008B1050008B505000800000000A6
:10002000000000000000000000000000B90500080A
:10003000BD05000800000000C1050008C505000856
:10004000C9050008CD050008D1050008D505000840
:10005000D9050008DD050008E1050008E5050008F0
:10006000E9050008ED050008F1050008F5050008A0
:10007000F9050008FD05000801060008050600084E
:10008000090600080D0600081106000815060008FC
:10009000190600081D0600082106000825060008AC
:1000A000290600082D06000831060008350600085C
:1000B000390600083D06000841060008450600080C
:1000C000490600084D0600085106000855060008BC
:1000D000590600085D06000861060008650600086C
:1000E000690600086D06000871060008750600081C
:1000F000790600087D0600088106000885060008CC
:10010000890600088D06000891060008950600087B
:10011000990600089D060008A1060008A50600082B
:10012000A9060008AD060008B1060008B5060008DB
:10013000DFF8E401006850F00100DFF8DC1108602E
:10014000DFF8D8010068DFF8D8110840DFF8CC11DB
:100150000860DFF8C4010068DFF8C8110840DFF864
:10016000B8110860DFF8B001006830F48020DFF8D3
:10017000A8110860DFF8A401006830F4FE00DFF881
:100180009C110860DFF8A0015FF41F010160704757
:10019000DFF88411096831F48031DFF87C211160C7
:1001A000DFF87411096831F48021DFF86C211160E7
:1001B0000100B1F5803F03D0B1F5802F09D011E0E7
:1001C000DFF85411096851F48031DFF84C211160D7
:1001D00008E0DFF84411096851F4A021DFF8382164
:1001E0001160FFE7704738B500200090002400251B
:1001F000312000F068F805000098401C009000983D
:10020000B0F5A06F02D0EDB2002DF1D0312000F09A
:100210005AF8002802D00120040001E00020040068
:100220002000C0B232BD0022DFF8F0301B681A0097
:1002300032F47C1251EA00031A43DFF8E0301A600E
:100240007047DFF8E810C0B2086070470021334AF9
:1002500012681100890889000143304A1160704713
:100260002E48006810F00C00704700212B4A1268DD
:10027000110031F0F0010143284A1160704700215C
:10028000264A1268110031F4E0610143234A1160EB
:1002900070470021214A1268110031F4605151EA7F
:1002A000C0011E4A11607047C9B2002905D0214A19
:1002B000126802431F4B1A6004E01E4A1268824310
:1002C0001C4B1A60704710B401000022002300206C
:1002D000C9B24C09E4B22200012A03D10E4C2468B1
:1002E000230008E0022A03D1114C2468230002E015
:1002F000114C24682300C9B211F01F04220001240C
:100300009440234202D00124200001E00024200078
:10031000C0B210BC70470000001002400410024040
:100320000000FFF8FFFFF6FE0810024060004242A6
:1003300020100240181002402410024080B54E48A0
:10034000006850F001004C4908604C4800684C4976
:1003500008404A490860484800684A4908404649F8
:1003600008604548006830F48020434908604348ED
:10037000006830F4FE004149086043485FF41F0103
:10038000016000F005F841485FF00061016001BDC7
:1003900080B500F001F801BD82B00020019000207E
:1003A00000903548006850F4803033490860324886
:1003B000006810F4003000900198401C01900098F3
:1003C000002803D10198B0F5A06FF0D12A48006849
:1003D000800302D50120009001E0002000900098E9
:1003E000012847D12A48006850F0100028490860C9
:1003F0002748006880088000254908602448006874
:1004000050F00200224908601C481C49096801603C
:100410001A481A49096801601848006850F4806059
:10042000164908601548006830F47C1013490860CC
:100430001248006850F4E810104908600E4800683F
:1004400050F080700C4908600B4800688001FBD5B3
:100450000A4800688008800008490860074800686A
:1004600050F00200054908600448006810F00C00D4
:100470000828F9D102B07047001002400410024071
:100480000000FFF8FFFFF6FE0810024008ED00E054
:100490000020024010B5FFF74BFE5FF48030FFF7FD
:1004A00077FEFFF7A0FE0400E4B2012C24D1102057
:1004B00000F038F8022000F029F80020FFF7D5FE00
:1004C0000020FFF7E6FE4FF48060FFF7D8FE5FF4F0
:1004D000E0115FF48030FFF7A6FE0120FFF7B1FEC8
:1004E0003920FFF7F0FE0028FAD00220FFF7AEFE19
:1004F000FFF7B6FE0828FBD101214FF4FE70FFF78D
:10050000D3FE10BDFFF7C6FFFEE700000021DFF8B5
:1005100034201268110011F038010143DFF8242063
:1005200011607047DFF81C10096831F01001DFF826
:1005300014201160DFF80C1009680143DFF8042073
:10054000116070470020024000F009F8002801D037
:10055000C046C0460020FFF7D5FF00F002F801209A
:10056000704700F001B800000746384600F002F876
:10057000FBE70000C046C046024A11001820ABBE8F
:10058000FBE700BF26000200014880470148004702
:100590003D03000899050008C046C046C046C04655
:1005A000FFF7D2FFFFF7FEBFFFF7FEBFFFF7FEBF6B
:1005B000FFF7FEBFFFF7FEBFFFF7FEBFFFF7FEBF6F
:1005C000FFF7FEBFFFF7FEBFFFF7FEBFFFF7FEBF5F
:1005D000FFF7FEBFFFF7FEBFFFF7FEBFFFF7FEBF4F
:1005E000FFF7FEBFFFF7FEBFFFF7FEBFFFF7FEBF3F
:1005F000FFF7FEBFFFF7FEBFFFF7FEBFFFF7FEBF2F
:10060000FFF7FEBFFFF7FEBFFFF7FEBFFFF7FEBF1E
:10061000FFF7FEBFFFF7FEBFFFF7FEBFFFF7FEBF0E
:10062000FFF7FEBFFFF7FEBFFFF7FEBFFFF7FEBFFE
:10063000FFF7FEBFFFF7FEBFFFF7FEBFFFF7FEBFEE
:10064000FFF7FEBFFFF7FEBFFFF7FEBFFFF7FEBFDE
:10065000FFF7FEBFFFF7FEBFFFF7FEBFFFF7FEBFCE
:10066000FFF7FEBFFFF7FEBFFFF7FEBFFFF7FEBFBE
:10067000FFF7FEBFFFF7FEBFFFF7FEBFFFF7FEBFAE
:10068000FFF7FEBFFFF7FEBFFFF7FEBFFFF7FEBF9E
:10069000FFF7FEBFFFF7FEBFFFF7FEBFFFF7FEBF8E
:1006A000FFF7FEBFFFF7FEBFFFF7FEBFFFF7FEBF7E
:0806B000FFF7FEBFFFF7FEBFDC
:040000050800059951
:00000001FF
